{
  "contractName": "BankOwned",
  "abi": [
    {
      "inputs": [],
      "stateMutability": "nonpayable",
      "type": "constructor"
    },
    {
      "inputs": [],
      "name": "bankAddress",
      "outputs": [
        {
          "internalType": "address",
          "name": "",
          "type": "address"
        }
      ],
      "stateMutability": "view",
      "type": "function",
      "constant": true
    }
  ],
  "bytecode": "0x608060405234801561001057600080fd5b50336000806101000a81548173ffffffffffffffffffffffffffffffffffffffff021916908373ffffffffffffffffffffffffffffffffffffffff16021790555060f78061005f6000396000f3fe6080604052348015600f57600080fd5b506004361060285760003560e01c80637822ed4914602d575b600080fd5b60336047565b604051603e919060a8565b60405180910390f35b60008054906101000a900473ffffffffffffffffffffffffffffffffffffffff1681565b600073ffffffffffffffffffffffffffffffffffffffff82169050919050565b6000609482606b565b9050919050565b60a281608b565b82525050565b600060208201905060bb6000830184609b565b9291505056fea2646970667358221220a052a7291eb62f395ad1c535f1140544cca6d62e0e84c816361b333e3bc55bf964736f6c634300080a0033",
  "immutableReferences": {},
  "source": "// SPDX-License-Identifier: MIT\npragma solidity ^0.8.0;\n\ncontract BankOwned {\n\taddress public bankAddress;\n\n\tconstructor() {\n\t\tbankAddress = msg.sender;\n\t}\n\n\tmodifier onlyOwner() {\n\t\trequire(msg.sender == bankAddress);\n\t\t_;\n\t}\n}\n\ncontract Roulette is BankOwned {\n\tuint256 public immutable TIMEOUT_FOR_BANK_REVEAL = 1 days;\n\tuint256 public immutable ROULETTE_NUMBER_COUNT = 37;\n\n\t// prettier-ignore\n\tbool[37] isNumberRed = [false, true, false, true, false, true, false, true, false, true, false, false, true, false, true, false, true, false, true, true, false, true, false, true, false, true, false, true, false, false, true, false, true, false, true, false, true];\n\n\tstruct GameRound {\n\t\tbytes32 bankHash;\n\t\tuint256 bankSecretValue;\n\t\tuint256 userValue;\n\t\tbool hasUserBetOnRed;\n\t\tuint256 timeWhenSecretUserValueSubmitted;\n\t\tuint256 lockedFunds;\n\t}\n\n\tmapping(address => bool) public hasRequestedGame;\n\tmapping(address => GameRound) public gameRounds;\n\tmapping(address => uint256) public registeredFunds;\n\n\tevent NewGameRequest(address indexed user);\n\tevent BankVals(uint256 bSecret,bytes32 bHash);\n\tevent WinnerDetails(uint256 number, address winnner);\n\n\tfunction increaseFunds() external payable {\n\t\trequire(msg.value > 0, \"Must send ETH\");\n\t\tregisteredFunds[msg.sender] += msg.value;\n\t}\n\n\tfunction withdrawMoney() external {\n\t\trequire(registeredFunds[msg.sender] > 0, \"No money present in wal\");\n\n\t\tuint256 funds = registeredFunds[msg.sender];\n\t\tregisteredFunds[msg.sender] = 0;\n\n\t\t(bool wasSuccessful, ) = msg.sender.call{ value: funds }(\"\");\n\t\trequire(wasSuccessful, \"ETH transfer failed\");\n\t}\n\n  function getBalance() external view returns(uint256){\n    uint256 funds = registeredFunds[msg.sender]; \n    return funds;\n  }\n\n\tfunction initializeGame() external {\n\t\trequire(!hasRequestedGame[msg.sender], \"Already requested game\");\n\n\t\thasRequestedGame[msg.sender] = true;\n\t\temit NewGameRequest(msg.sender);\n\t}\n\n\tfunction setInitialBankHash(bytes32 bankHash, address userAddress) external onlyOwner {\n\t\trequire(gameRounds[userAddress].bankHash == 0x0, \"Bank hash already set\");\n\t\tgameRounds[userAddress].bankHash = bankHash;\n\t}\n\n\tfunction placeBet(\n\t\tbool hasUserBetOnRed,\n\t\tuint256 userValue,\n\t\tuint256 _betAmount\n\t) external {\n\t\trequire(gameRounds[msg.sender].bankHash != 0x0, \"Bank hash not yet set\");\n\t\trequire(gameRounds[msg.sender].userValue == 0, \"Already placed bet\");\n\t\trequire(registeredFunds[bankAddress] >= _betAmount, \"Not enough bank funds\");\n\t\trequire(registeredFunds[msg.sender] >= _betAmount, \"Not enough user funds\");\n\n\t\tgameRounds[msg.sender].userValue = userValue;\n\t\tgameRounds[msg.sender].hasUserBetOnRed = hasUserBetOnRed;\n\t\tgameRounds[msg.sender].lockedFunds = _betAmount * 2;\n\t\tgameRounds[msg.sender].timeWhenSecretUserValueSubmitted = block.timestamp;\n\n\t\tregisteredFunds[msg.sender] -= _betAmount;\n\t\tregisteredFunds[bankAddress] -= _betAmount;\n\t}\n\n\tfunction getHash(uint256 secret) pure external returns(bytes32){\n\t\treturn keccak256(abi.encodePacked(secret));\n\t}\n\n\tfunction getHashSaved(address userAddress) view external returns(bytes32){\n\t\treturn gameRounds[userAddress].bankHash;\n\t}\n\n\tfunction sendBankSecretValue(uint256 bankSecretValue, address userAddress) external {\n\n\t\temit BankVals(bankSecretValue, gameRounds[userAddress].bankHash);\n\n\t\trequire(gameRounds[userAddress].userValue != 0, \"User has no value set\");\n\t\trequire(gameRounds[userAddress].bankSecretValue == 0, \"Already revealed\");\n\t\trequire(\n\t\t\tkeccak256(abi.encodePacked(bankSecretValue)) == gameRounds[userAddress].bankHash,\n\t\t\t\"Bank reveal not matching commitment\"\n\t\t);\n\n\t\tgameRounds[userAddress].bankSecretValue = bankSecretValue;\n\n\t\t_evaluateBet(userAddress);\n\t\t_resetContractFor(userAddress);\n\n\t}\n\n\tfunction checkBankSecretValueTimeout() external {\n\t\trequire(gameRounds[msg.sender].bankHash != 0, \"Bank hash not set\");\n\t\trequire(gameRounds[msg.sender].bankSecretValue == 0, \"Bank secret is set\");\n\t\trequire(gameRounds[msg.sender].userValue != 0, \"User value not set\");\n\t\trequire(\n\t\t\tblock.timestamp >\n\t\t\t\t(gameRounds[msg.sender].timeWhenSecretUserValueSubmitted +\n\t\t\t\t\tTIMEOUT_FOR_BANK_REVEAL),\n\t\t\t\"Timeout not yet reached\"\n\t\t);\n\n\t\tregisteredFunds[msg.sender] += gameRounds[msg.sender].lockedFunds;\n\t\t_resetContractFor(msg.sender);\n\t}\n\n\tfunction _resetContractFor(address userAddress) private {\n\t\tgameRounds[userAddress] = GameRound(0x0, 0, 0, false, 0, 0);\n\t}\n\n\tfunction _evaluateBet(address userAddress) private {\n\t\tuint256 random = gameRounds[userAddress].bankSecretValue ^\n\t\t\tgameRounds[userAddress].userValue;\n\t\tuint256 number = random % ROULETTE_NUMBER_COUNT;\n\t\tuint256 winningAmount = gameRounds[userAddress].lockedFunds;\n\n\t\tbool isNeitherRedNorBlack = number == 0;\n\t\tbool isRed = isNumberRed[number];\n\t\tbool hasUserBetOnRed = gameRounds[userAddress].hasUserBetOnRed;\n\n\t\taddress winner;\n\n\t\tif (isNeitherRedNorBlack) winner = bankAddress;\n\t\telse if (isRed == hasUserBetOnRed) winner = userAddress;\n\t\telse winner = bankAddress;\n\n\t\temit WinnerDetails(number, winner);\n\n\t\tregisteredFunds[winner] += winningAmount;\n\t}\n}\n",
  "sourcePath": "/home/yashshah/CryptoProject/contracts/RouletteGame.sol",
  "compiler": {
    "name": "solc",
    "version": "0.8.10+commit.fc410830.Emscripten.clang"
  },
  "schemaVersion": "3.4.3",
  "updatedAt": "2021-12-01T10:38:39.491Z",
  "networkType": "ethereum",
  "devdoc": {
    "kind": "dev",
    "methods": {},
    "version": 1
  },
  "userdoc": {
    "kind": "user",
    "methods": {},
    "version": 1
  }
}