{
  "contractName": "Roulette",
  "abi": [
    {
      "anonymous": false,
      "inputs": [
        {
          "indexed": false,
          "internalType": "uint256",
          "name": "bSecret",
          "type": "uint256"
        },
        {
          "indexed": false,
          "internalType": "bytes32",
          "name": "bHash",
          "type": "bytes32"
        }
      ],
      "name": "BankVals",
      "type": "event"
    },
    {
      "anonymous": false,
      "inputs": [
        {
          "indexed": true,
          "internalType": "address",
          "name": "user",
          "type": "address"
        }
      ],
      "name": "NewGameRequest",
      "type": "event"
    },
    {
      "anonymous": false,
      "inputs": [
        {
          "indexed": false,
          "internalType": "uint256",
          "name": "number",
          "type": "uint256"
        },
        {
          "indexed": false,
          "internalType": "address",
          "name": "winnner",
          "type": "address"
        }
      ],
      "name": "WinnerDetails",
      "type": "event"
    },
    {
      "inputs": [],
      "name": "ROULETTE_NUMBER_COUNT",
      "outputs": [
        {
          "internalType": "uint256",
          "name": "",
          "type": "uint256"
        }
      ],
      "stateMutability": "view",
      "type": "function",
      "constant": true
    },
    {
      "inputs": [],
      "name": "TIMEOUT_FOR_BANK_REVEAL",
      "outputs": [
        {
          "internalType": "uint256",
          "name": "",
          "type": "uint256"
        }
      ],
      "stateMutability": "view",
      "type": "function",
      "constant": true
    },
    {
      "inputs": [],
      "name": "bankAddress",
      "outputs": [
        {
          "internalType": "address",
          "name": "",
          "type": "address"
        }
      ],
      "stateMutability": "view",
      "type": "function",
      "constant": true
    },
    {
      "inputs": [
        {
          "internalType": "address",
          "name": "",
          "type": "address"
        }
      ],
      "name": "gameRounds",
      "outputs": [
        {
          "internalType": "bytes32",
          "name": "bankHash",
          "type": "bytes32"
        },
        {
          "internalType": "uint256",
          "name": "bankSecretValue",
          "type": "uint256"
        },
        {
          "internalType": "uint256",
          "name": "userValue",
          "type": "uint256"
        },
        {
          "internalType": "bool",
          "name": "hasUserBetOnRed",
          "type": "bool"
        },
        {
          "internalType": "uint256",
          "name": "timeWhenSecretUserValueSubmitted",
          "type": "uint256"
        },
        {
          "internalType": "uint256",
          "name": "lockedFunds",
          "type": "uint256"
        }
      ],
      "stateMutability": "view",
      "type": "function",
      "constant": true
    },
    {
      "inputs": [
        {
          "internalType": "address",
          "name": "",
          "type": "address"
        }
      ],
      "name": "hasRequestedGame",
      "outputs": [
        {
          "internalType": "bool",
          "name": "",
          "type": "bool"
        }
      ],
      "stateMutability": "view",
      "type": "function",
      "constant": true
    },
    {
      "inputs": [
        {
          "internalType": "address",
          "name": "",
          "type": "address"
        }
      ],
      "name": "registeredFunds",
      "outputs": [
        {
          "internalType": "uint256",
          "name": "",
          "type": "uint256"
        }
      ],
      "stateMutability": "view",
      "type": "function",
      "constant": true
    },
    {
      "inputs": [],
      "name": "increaseFunds",
      "outputs": [],
      "stateMutability": "payable",
      "type": "function",
      "payable": true
    },
    {
      "inputs": [],
      "name": "withdrawMoney",
      "outputs": [],
      "stateMutability": "nonpayable",
      "type": "function"
    },
    {
      "inputs": [],
      "name": "getBalance",
      "outputs": [
        {
          "internalType": "uint256",
          "name": "",
          "type": "uint256"
        }
      ],
      "stateMutability": "view",
      "type": "function",
      "constant": true
    },
    {
      "inputs": [],
      "name": "initializeGame",
      "outputs": [],
      "stateMutability": "nonpayable",
      "type": "function"
    },
    {
      "inputs": [
        {
          "internalType": "bytes32",
          "name": "bankHash",
          "type": "bytes32"
        },
        {
          "internalType": "address",
          "name": "userAddress",
          "type": "address"
        }
      ],
      "name": "setInitialBankHash",
      "outputs": [],
      "stateMutability": "nonpayable",
      "type": "function"
    },
    {
      "inputs": [
        {
          "internalType": "bool",
          "name": "hasUserBetOnRed",
          "type": "bool"
        },
        {
          "internalType": "uint256",
          "name": "userValue",
          "type": "uint256"
        },
        {
          "internalType": "uint256",
          "name": "_betAmount",
          "type": "uint256"
        }
      ],
      "name": "placeBet",
      "outputs": [],
      "stateMutability": "nonpayable",
      "type": "function"
    },
    {
      "inputs": [
        {
          "internalType": "uint256",
          "name": "secret",
          "type": "uint256"
        }
      ],
      "name": "getHash",
      "outputs": [
        {
          "internalType": "bytes32",
          "name": "",
          "type": "bytes32"
        }
      ],
      "stateMutability": "pure",
      "type": "function",
      "constant": true
    },
    {
      "inputs": [
        {
          "internalType": "address",
          "name": "userAddress",
          "type": "address"
        }
      ],
      "name": "getHashSaved",
      "outputs": [
        {
          "internalType": "bytes32",
          "name": "",
          "type": "bytes32"
        }
      ],
      "stateMutability": "view",
      "type": "function",
      "constant": true
    },
    {
      "inputs": [
        {
          "internalType": "uint256",
          "name": "bankSecretValue",
          "type": "uint256"
        },
        {
          "internalType": "address",
          "name": "userAddress",
          "type": "address"
        }
      ],
      "name": "sendBankSecretValue",
      "outputs": [],
      "stateMutability": "nonpayable",
      "type": "function"
    },
    {
      "inputs": [],
      "name": "checkBankSecretValueTimeout",
      "outputs": [],
      "stateMutability": "nonpayable",
      "type": "function"
    }
  ],
  "bytecode": "0x60c060405262015180608090815250602560a090815250604051806104a001604052806000151515158152602001600115151515815260200160001515151581526020016001151515158152602001600015151515815260200160011515151581526020016000151515158152602001600115151515815260200160001515151581526020016001151515158152602001600015151515815260200160001515151581526020016001151515158152602001600015151515815260200160011515151581526020016000151515158152602001600115151515815260200160001515151581526020016001151515158152602001600115151515815260200160001515151581526020016001151515158152602001600015151515815260200160011515151581526020016000151515158152602001600115151515815260200160001515151581526020016001151515158152602001600015151515815260200160001515151581526020016001151515158152602001600015151515815260200160011515151581526020016000151515158152602001600115151515815260200160001515151581526020016001151515158152506001906025620001c99291906200021e565b50348015620001d757600080fd5b50336000806101000a81548173ffffffffffffffffffffffffffffffffffffffff021916908373ffffffffffffffffffffffffffffffffffffffff160217905550620002dd565b826025601f01602090048101928215620002ab5791602002820160005b838211156200027a57835183826101000a81548160ff02191690831515021790555092602001926001016020816000010492830192600103026200023b565b8015620002a95782816101000a81549060ff02191690556001016020816000010492830192600103026200027a565b505b509050620002ba9190620002be565b5090565b5b80821115620002d9576000816000905550600101620002bf565b5090565b60805160a0516123ef62000311600039600081816113920152611443015260008181610ca50152610f8601526123ef6000f3fe6080604052600436106100f35760003560e01c80639dc77d581161008a578063ac44600211610059578063ac4460021461031b578063b3a5cec614610332578063ddb570921461036f578063fe68848914610379576100f3565b80639dc77d5814610285578063a0a1f49b146102b0578063a35fdf95146102c7578063a5f3ccef146102de576100f3565b80637822ed49116100c65780637822ed49146101cb5780637bf92412146101f65780637f02d9051461021f57806384ba9eaf1461025c576100f3565b806312065fe0146100f85780631e00c5a51461012357806364ea95761461014c5780636b2fafa91461018e575b600080fd5b34801561010457600080fd5b5061010d6103a4565b60405161011a9190611728565b60405180910390f35b34801561012f57600080fd5b5061014a600480360381019061014591906117ac565b6103f0565b005b34801561015857600080fd5b50610173600480360381019061016e919061185d565b61082f565b604051610185969594939291906118b2565b60405180910390f35b34801561019a57600080fd5b506101b560048036038101906101b09190611913565b610878565b6040516101c29190611940565b60405180910390f35b3480156101d757600080fd5b506101e06108a8565b6040516101ed919061196a565b60405180910390f35b34801561020257600080fd5b5061021d60048036038101906102189190611985565b6108cc565b005b34801561022b57600080fd5b506102466004803603810190610241919061185d565b610b59565b60405161025391906119c5565b60405180910390f35b34801561026857600080fd5b50610283600480360381019061027e9190611a0c565b610b79565b005b34801561029157600080fd5b5061029a610ca3565b6040516102a79190611728565b60405180910390f35b3480156102bc57600080fd5b506102c5610cc7565b005b3480156102d357600080fd5b506102dc610df1565b005b3480156102ea57600080fd5b506103056004803603810190610300919061185d565b6110d6565b6040516103129190611940565b60405180910390f35b34801561032757600080fd5b50610330611122565b005b34801561033e57600080fd5b506103596004803603810190610354919061185d565b6112dd565b6040516103669190611728565b60405180910390f35b6103776112f5565b005b34801561038557600080fd5b5061038e611390565b60405161039b9190611728565b60405180910390f35b600080600560003373ffffffffffffffffffffffffffffffffffffffff1673ffffffffffffffffffffffffffffffffffffffff1681526020019081526020016000205490508091505090565b6000801b600460003373ffffffffffffffffffffffffffffffffffffffff1673ffffffffffffffffffffffffffffffffffffffff168152602001908152602001600020600001541415610478576040517f08c379a000000000000000000000000000000000000000000000000000000000815260040161046f90611aa9565b60405180910390fd5b6000600460003373ffffffffffffffffffffffffffffffffffffffff1673ffffffffffffffffffffffffffffffffffffffff16815260200190815260200160002060020154146104fd576040517f08c379a00000000000000000000000000000000000000000000000000000000081526004016104f490611b15565b60405180910390fd5b80600560008060009054906101000a900473ffffffffffffffffffffffffffffffffffffffff1673ffffffffffffffffffffffffffffffffffffffff1673ffffffffffffffffffffffffffffffffffffffff1681526020019081526020016000205410156105a0576040517f08c379a000000000000000000000000000000000000000000000000000000000815260040161059790611b81565b60405180910390fd5b80600560003373ffffffffffffffffffffffffffffffffffffffff1673ffffffffffffffffffffffffffffffffffffffff168152602001908152602001600020541015610622576040517f08c379a000000000000000000000000000000000000000000000000000000000815260040161061990611bed565b60405180910390fd5b81600460003373ffffffffffffffffffffffffffffffffffffffff1673ffffffffffffffffffffffffffffffffffffffff1681526020019081526020016000206002018190555082600460003373ffffffffffffffffffffffffffffffffffffffff1673ffffffffffffffffffffffffffffffffffffffff16815260200190815260200160002060030160006101000a81548160ff0219169083151502179055506002816106d09190611c3c565b600460003373ffffffffffffffffffffffffffffffffffffffff1673ffffffffffffffffffffffffffffffffffffffff1681526020019081526020016000206005018190555042600460003373ffffffffffffffffffffffffffffffffffffffff1673ffffffffffffffffffffffffffffffffffffffff1681526020019081526020016000206004018190555080600560003373ffffffffffffffffffffffffffffffffffffffff1673ffffffffffffffffffffffffffffffffffffffff16815260200190815260200160002060008282546107ac9190611c96565b9250508190555080600560008060009054906101000a900473ffffffffffffffffffffffffffffffffffffffff1673ffffffffffffffffffffffffffffffffffffffff1673ffffffffffffffffffffffffffffffffffffffff16815260200190815260200160002060008282546108239190611c96565b92505081905550505050565b60046020528060005260406000206000915090508060000154908060010154908060020154908060030160009054906101000a900460ff16908060040154908060050154905086565b60008160405160200161088b9190611ceb565b604051602081830303815290604052805190602001209050919050565b60008054906101000a900473ffffffffffffffffffffffffffffffffffffffff1681565b7f1b290541e5d23dd75e1f55b7c4774e68cbe09e6361feab7f0be6e12010bbfc4782600460008473ffffffffffffffffffffffffffffffffffffffff1673ffffffffffffffffffffffffffffffffffffffff1681526020019081526020016000206000015460405161093f929190611d06565b60405180910390a16000600460008373ffffffffffffffffffffffffffffffffffffffff1673ffffffffffffffffffffffffffffffffffffffff1681526020019081526020016000206002015414156109cd576040517f08c379a00000000000000000000000000000000000000000000000000000000081526004016109c490611d7b565b60405180910390fd5b6000600460008373ffffffffffffffffffffffffffffffffffffffff1673ffffffffffffffffffffffffffffffffffffffff1681526020019081526020016000206001015414610a52576040517f08c379a0000000000000000000000000000000000000000000000000000000008152600401610a4990611de7565b60405180910390fd5b600460008273ffffffffffffffffffffffffffffffffffffffff1673ffffffffffffffffffffffffffffffffffffffff1681526020019081526020016000206000015482604051602001610aa69190611ceb565b6040516020818303038152906040528051906020012014610afc576040517f08c379a0000000000000000000000000000000000000000000000000000000008152600401610af390611e79565b60405180910390fd5b81600460008373ffffffffffffffffffffffffffffffffffffffff1673ffffffffffffffffffffffffffffffffffffffff16815260200190815260200160002060010181905550610b4c816113b4565b610b5581611641565b5050565b60036020528060005260406000206000915054906101000a900460ff1681565b60008054906101000a900473ffffffffffffffffffffffffffffffffffffffff1673ffffffffffffffffffffffffffffffffffffffff163373ffffffffffffffffffffffffffffffffffffffff1614610bd157600080fd5b6000801b600460008373ffffffffffffffffffffffffffffffffffffffff1673ffffffffffffffffffffffffffffffffffffffff1681526020019081526020016000206000015414610c58576040517f08c379a0000000000000000000000000000000000000000000000000000000008152600401610c4f90611ee5565b60405180910390fd5b81600460008373ffffffffffffffffffffffffffffffffffffffff1673ffffffffffffffffffffffffffffffffffffffff168152602001908152602001600020600001819055505050565b7f000000000000000000000000000000000000000000000000000000000000000081565b600360003373ffffffffffffffffffffffffffffffffffffffff1673ffffffffffffffffffffffffffffffffffffffff16815260200190815260200160002060009054906101000a900460ff1615610d54576040517f08c379a0000000000000000000000000000000000000000000000000000000008152600401610d4b90611f51565b60405180910390fd5b6001600360003373ffffffffffffffffffffffffffffffffffffffff1673ffffffffffffffffffffffffffffffffffffffff16815260200190815260200160002060006101000a81548160ff0219169083151502179055503373ffffffffffffffffffffffffffffffffffffffff167f2ecaf1493a770f6567e43ff54567b68042dd048a3cfb2f07359a89286913d30d60405160405180910390a2565b6000801b600460003373ffffffffffffffffffffffffffffffffffffffff1673ffffffffffffffffffffffffffffffffffffffff168152602001908152602001600020600001541415610e79576040517f08c379a0000000000000000000000000000000000000000000000000000000008152600401610e7090611fbd565b60405180910390fd5b6000600460003373ffffffffffffffffffffffffffffffffffffffff1673ffffffffffffffffffffffffffffffffffffffff1681526020019081526020016000206001015414610efe576040517f08c379a0000000000000000000000000000000000000000000000000000000008152600401610ef590612029565b60405180910390fd5b6000600460003373ffffffffffffffffffffffffffffffffffffffff1673ffffffffffffffffffffffffffffffffffffffff168152602001908152602001600020600201541415610f84576040517f08c379a0000000000000000000000000000000000000000000000000000000008152600401610f7b90612095565b60405180910390fd5b7f0000000000000000000000000000000000000000000000000000000000000000600460003373ffffffffffffffffffffffffffffffffffffffff1673ffffffffffffffffffffffffffffffffffffffff16815260200190815260200160002060040154610ff291906120b5565b4211611033576040517f08c379a000000000000000000000000000000000000000000000000000000000815260040161102a90612157565b60405180910390fd5b600460003373ffffffffffffffffffffffffffffffffffffffff1673ffffffffffffffffffffffffffffffffffffffff16815260200190815260200160002060050154600560003373ffffffffffffffffffffffffffffffffffffffff1673ffffffffffffffffffffffffffffffffffffffff16815260200190815260200160002060008282546110c491906120b5565b925050819055506110d433611641565b565b6000600460008373ffffffffffffffffffffffffffffffffffffffff1673ffffffffffffffffffffffffffffffffffffffff168152602001908152602001600020600001549050919050565b6000600560003373ffffffffffffffffffffffffffffffffffffffff1673ffffffffffffffffffffffffffffffffffffffff16815260200190815260200160002054116111a4576040517f08c379a000000000000000000000000000000000000000000000000000000000815260040161119b906121c3565b60405180910390fd5b6000600560003373ffffffffffffffffffffffffffffffffffffffff1673ffffffffffffffffffffffffffffffffffffffff1681526020019081526020016000205490506000600560003373ffffffffffffffffffffffffffffffffffffffff1673ffffffffffffffffffffffffffffffffffffffff1681526020019081526020016000208190555060003373ffffffffffffffffffffffffffffffffffffffff168260405161125390612214565b60006040518083038185875af1925050503d8060008114611290576040519150601f19603f3d011682016040523d82523d6000602084013e611295565b606091505b50509050806112d9576040517f08c379a00000000000000000000000000000000000000000000000000000000081526004016112d090612275565b60405180910390fd5b5050565b60056020528060005260406000206000915090505481565b60003411611338576040517f08c379a000000000000000000000000000000000000000000000000000000000815260040161132f906122e1565b60405180910390fd5b34600560003373ffffffffffffffffffffffffffffffffffffffff1673ffffffffffffffffffffffffffffffffffffffff168152602001908152602001600020600082825461138791906120b5565b92505081905550565b7f000000000000000000000000000000000000000000000000000000000000000081565b6000600460008373ffffffffffffffffffffffffffffffffffffffff1673ffffffffffffffffffffffffffffffffffffffff16815260200190815260200160002060020154600460008473ffffffffffffffffffffffffffffffffffffffff1673ffffffffffffffffffffffffffffffffffffffff1681526020019081526020016000206001015418905060007f00000000000000000000000000000000000000000000000000000000000000008261146d9190612330565b90506000600460008573ffffffffffffffffffffffffffffffffffffffff1673ffffffffffffffffffffffffffffffffffffffff168152602001908152602001600020600501549050600080831490506000600184602581106114d3576114d2612361565b5b602091828204019190069054906101000a900460ff1690506000600460008873ffffffffffffffffffffffffffffffffffffffff1673ffffffffffffffffffffffffffffffffffffffff16815260200190815260200160002060030160009054906101000a900460ff1690506000831561156f5760008054906101000a900473ffffffffffffffffffffffffffffffffffffffff1690506115a8565b8115158315151415611583578790506115a7565b60008054906101000a900473ffffffffffffffffffffffffffffffffffffffff1690505b5b7ff3999a445fa36b84fb1c37c9cb8f9cb3cce007156c0921b8e47e7f8b2aa6b66586826040516115d9929190612390565b60405180910390a184600560008373ffffffffffffffffffffffffffffffffffffffff1673ffffffffffffffffffffffffffffffffffffffff168152602001908152602001600020600082825461163091906120b5565b925050819055505050505050505050565b6040518060c001604052806000801b81526020016000815260200160008152602001600015158152602001600081526020016000815250600460008373ffffffffffffffffffffffffffffffffffffffff1673ffffffffffffffffffffffffffffffffffffffff16815260200190815260200160002060008201518160000155602082015181600101556040820151816002015560608201518160030160006101000a81548160ff0219169083151502179055506080820151816004015560a0820151816005015590505050565b6000819050919050565b6117228161170f565b82525050565b600060208201905061173d6000830184611719565b92915050565b600080fd5b60008115159050919050565b61175d81611748565b811461176857600080fd5b50565b60008135905061177a81611754565b92915050565b6117898161170f565b811461179457600080fd5b50565b6000813590506117a681611780565b92915050565b6000806000606084860312156117c5576117c4611743565b5b60006117d38682870161176b565b93505060206117e486828701611797565b92505060406117f586828701611797565b9150509250925092565b600073ffffffffffffffffffffffffffffffffffffffff82169050919050565b600061182a826117ff565b9050919050565b61183a8161181f565b811461184557600080fd5b50565b60008135905061185781611831565b92915050565b60006020828403121561187357611872611743565b5b600061188184828501611848565b91505092915050565b6000819050919050565b61189d8161188a565b82525050565b6118ac81611748565b82525050565b600060c0820190506118c76000830189611894565b6118d46020830188611719565b6118e16040830187611719565b6118ee60608301866118a3565b6118fb6080830185611719565b61190860a0830184611719565b979650505050505050565b60006020828403121561192957611928611743565b5b600061193784828501611797565b91505092915050565b60006020820190506119556000830184611894565b92915050565b6119648161181f565b82525050565b600060208201905061197f600083018461195b565b92915050565b6000806040838503121561199c5761199b611743565b5b60006119aa85828601611797565b92505060206119bb85828601611848565b9150509250929050565b60006020820190506119da60008301846118a3565b92915050565b6119e98161188a565b81146119f457600080fd5b50565b600081359050611a06816119e0565b92915050565b60008060408385031215611a2357611a22611743565b5b6000611a31858286016119f7565b9250506020611a4285828601611848565b9150509250929050565b600082825260208201905092915050565b7f42616e6b2068617368206e6f7420796574207365740000000000000000000000600082015250565b6000611a93601583611a4c565b9150611a9e82611a5d565b602082019050919050565b60006020820190508181036000830152611ac281611a86565b9050919050565b7f416c726561647920706c61636564206265740000000000000000000000000000600082015250565b6000611aff601283611a4c565b9150611b0a82611ac9565b602082019050919050565b60006020820190508181036000830152611b2e81611af2565b9050919050565b7f4e6f7420656e6f7567682062616e6b2066756e64730000000000000000000000600082015250565b6000611b6b601583611a4c565b9150611b7682611b35565b602082019050919050565b60006020820190508181036000830152611b9a81611b5e565b9050919050565b7f4e6f7420656e6f75676820757365722066756e64730000000000000000000000600082015250565b6000611bd7601583611a4c565b9150611be282611ba1565b602082019050919050565b60006020820190508181036000830152611c0681611bca565b9050919050565b7f4e487b7100000000000000000000000000000000000000000000000000000000600052601160045260246000fd5b6000611c478261170f565b9150611c528361170f565b9250817fffffffffffffffffffffffffffffffffffffffffffffffffffffffffffffffff0483118215151615611c8b57611c8a611c0d565b5b828202905092915050565b6000611ca18261170f565b9150611cac8361170f565b925082821015611cbf57611cbe611c0d565b5b828203905092915050565b6000819050919050565b611ce5611ce08261170f565b611cca565b82525050565b6000611cf78284611cd4565b60208201915081905092915050565b6000604082019050611d1b6000830185611719565b611d286020830184611894565b9392505050565b7f5573657220686173206e6f2076616c7565207365740000000000000000000000600082015250565b6000611d65601583611a4c565b9150611d7082611d2f565b602082019050919050565b60006020820190508181036000830152611d9481611d58565b9050919050565b7f416c72656164792072657665616c656400000000000000000000000000000000600082015250565b6000611dd1601083611a4c565b9150611ddc82611d9b565b602082019050919050565b60006020820190508181036000830152611e0081611dc4565b9050919050565b7f42616e6b2072657665616c206e6f74206d61746368696e6720636f6d6d69746d60008201527f656e740000000000000000000000000000000000000000000000000000000000602082015250565b6000611e63602383611a4c565b9150611e6e82611e07565b604082019050919050565b60006020820190508181036000830152611e9281611e56565b9050919050565b7f42616e6b206861736820616c7265616479207365740000000000000000000000600082015250565b6000611ecf601583611a4c565b9150611eda82611e99565b602082019050919050565b60006020820190508181036000830152611efe81611ec2565b9050919050565b7f416c7265616479207265717565737465642067616d6500000000000000000000600082015250565b6000611f3b601683611a4c565b9150611f4682611f05565b602082019050919050565b60006020820190508181036000830152611f6a81611f2e565b9050919050565b7f42616e6b2068617368206e6f7420736574000000000000000000000000000000600082015250565b6000611fa7601183611a4c565b9150611fb282611f71565b602082019050919050565b60006020820190508181036000830152611fd681611f9a565b9050919050565b7f42616e6b20736563726574206973207365740000000000000000000000000000600082015250565b6000612013601283611a4c565b915061201e82611fdd565b602082019050919050565b6000602082019050818103600083015261204281612006565b9050919050565b7f557365722076616c7565206e6f74207365740000000000000000000000000000600082015250565b600061207f601283611a4c565b915061208a82612049565b602082019050919050565b600060208201905081810360008301526120ae81612072565b9050919050565b60006120c08261170f565b91506120cb8361170f565b9250827fffffffffffffffffffffffffffffffffffffffffffffffffffffffffffffffff03821115612100576120ff611c0d565b5b828201905092915050565b7f54696d656f7574206e6f74207965742072656163686564000000000000000000600082015250565b6000612141601783611a4c565b915061214c8261210b565b602082019050919050565b6000602082019050818103600083015261217081612134565b9050919050565b7f4e6f206d6f6e65792070726573656e7420696e2077616c000000000000000000600082015250565b60006121ad601783611a4c565b91506121b882612177565b602082019050919050565b600060208201905081810360008301526121dc816121a0565b9050919050565b600081905092915050565b50565b60006121fe6000836121e3565b9150612209826121ee565b600082019050919050565b600061221f826121f1565b9150819050919050565b7f455448207472616e73666572206661696c656400000000000000000000000000600082015250565b600061225f601383611a4c565b915061226a82612229565b602082019050919050565b6000602082019050818103600083015261228e81612252565b9050919050565b7f4d7573742073656e642045544800000000000000000000000000000000000000600082015250565b60006122cb600d83611a4c565b91506122d682612295565b602082019050919050565b600060208201905081810360008301526122fa816122be565b9050919050565b7f4e487b7100000000000000000000000000000000000000000000000000000000600052601260045260246000fd5b600061233b8261170f565b91506123468361170f565b92508261235657612355612301565b5b828206905092915050565b7f4e487b7100000000000000000000000000000000000000000000000000000000600052603260045260246000fd5b60006040820190506123a56000830185611719565b6123b2602083018461195b565b939250505056fea2646970667358221220f4ce73479204d1e53741eac114ffdb3fbcb0f22636ddbd7d7f22dd3f5a6211d664736f6c634300080a0033",
  "immutableReferences": {
    "29": [
      {
        "length": 32,
        "start": 3237
      },
      {
        "length": 32,
        "start": 3974
      }
    ],
    "32": [
      {
        "length": 32,
        "start": 5010
      },
      {
        "length": 32,
        "start": 5187
      }
    ]
  },
  "source": "// SPDX-License-Identifier: MIT\npragma solidity ^0.8.0;\n\ncontract BankOwned {\n\taddress public bankAddress;\n\n\tconstructor() {\n\t\tbankAddress = msg.sender;\n\t}\n\n\tmodifier onlyOwner() {\n\t\trequire(msg.sender == bankAddress);\n\t\t_;\n\t}\n}\n\ncontract Roulette is BankOwned {\n\tuint256 public immutable TIMEOUT_FOR_BANK_REVEAL = 1 days;\n\tuint256 public immutable ROULETTE_NUMBER_COUNT = 37;\n\n\t// prettier-ignore\n\tbool[37] isNumberRed = [false, true, false, true, false, true, false, true, false, true, false, false, true, false, true, false, true, false, true, true, false, true, false, true, false, true, false, true, false, false, true, false, true, false, true, false, true];\n\n\tstruct GameRound {\n\t\tbytes32 bankHash;\n\t\tuint256 bankSecretValue;\n\t\tuint256 userValue;\n\t\tbool hasUserBetOnRed;\n\t\tuint256 timeWhenSecretUserValueSubmitted;\n\t\tuint256 lockedFunds;\n\t}\n\n\tmapping(address => bool) public hasRequestedGame;\n\tmapping(address => GameRound) public gameRounds;\n\tmapping(address => uint256) public registeredFunds;\n\n\tevent NewGameRequest(address indexed user);\n\tevent BankVals(uint256 bSecret,bytes32 bHash);\n\tevent WinnerDetails(uint256 number, address winnner);\n\n\tfunction increaseFunds() external payable {\n\t\trequire(msg.value > 0, \"Must send ETH\");\n\t\tregisteredFunds[msg.sender] += msg.value;\n\t}\n\n\tfunction withdrawMoney() external {\n\t\trequire(registeredFunds[msg.sender] > 0, \"No money present in wal\");\n\n\t\tuint256 funds = registeredFunds[msg.sender];\n\t\tregisteredFunds[msg.sender] = 0;\n\n\t\t(bool wasSuccessful, ) = msg.sender.call{ value: funds }(\"\");\n\t\trequire(wasSuccessful, \"ETH transfer failed\");\n\t}\n\n  function getBalance() external view returns(uint256){\n    uint256 funds = registeredFunds[msg.sender]; \n    return funds;\n  }\n\n\tfunction initializeGame() external {\n\t\trequire(!hasRequestedGame[msg.sender], \"Already requested game\");\n\n\t\thasRequestedGame[msg.sender] = true;\n\t\temit NewGameRequest(msg.sender);\n\t}\n\n\tfunction setInitialBankHash(bytes32 bankHash, address userAddress) external onlyOwner {\n\t\trequire(gameRounds[userAddress].bankHash == 0x0, \"Bank hash already set\");\n\t\tgameRounds[userAddress].bankHash = bankHash;\n\t}\n\n\tfunction placeBet(\n\t\tbool hasUserBetOnRed,\n\t\tuint256 userValue,\n\t\tuint256 _betAmount\n\t) external {\n\t\trequire(gameRounds[msg.sender].bankHash != 0x0, \"Bank hash not yet set\");\n\t\trequire(gameRounds[msg.sender].userValue == 0, \"Already placed bet\");\n\t\trequire(registeredFunds[bankAddress] >= _betAmount, \"Not enough bank funds\");\n\t\trequire(registeredFunds[msg.sender] >= _betAmount, \"Not enough user funds\");\n\n\t\tgameRounds[msg.sender].userValue = userValue;\n\t\tgameRounds[msg.sender].hasUserBetOnRed = hasUserBetOnRed;\n\t\tgameRounds[msg.sender].lockedFunds = _betAmount * 2;\n\t\tgameRounds[msg.sender].timeWhenSecretUserValueSubmitted = block.timestamp;\n\n\t\tregisteredFunds[msg.sender] -= _betAmount;\n\t\tregisteredFunds[bankAddress] -= _betAmount;\n\t}\n\n\tfunction getHash(uint256 secret) pure external returns(bytes32){\n\t\treturn keccak256(abi.encodePacked(secret));\n\t}\n\n\tfunction getHashSaved(address userAddress) view external returns(bytes32){\n\t\treturn gameRounds[userAddress].bankHash;\n\t}\n\n\tfunction sendBankSecretValue(uint256 bankSecretValue, address userAddress) external {\n\n\t\temit BankVals(bankSecretValue, gameRounds[userAddress].bankHash);\n\n\t\trequire(gameRounds[userAddress].userValue != 0, \"User has no value set\");\n\t\trequire(gameRounds[userAddress].bankSecretValue == 0, \"Already revealed\");\n\t\trequire(\n\t\t\tkeccak256(abi.encodePacked(bankSecretValue)) == gameRounds[userAddress].bankHash,\n\t\t\t\"Bank reveal not matching commitment\"\n\t\t);\n\n\t\tgameRounds[userAddress].bankSecretValue = bankSecretValue;\n\n\t\t_evaluateBet(userAddress);\n\t\t_resetContractFor(userAddress);\n\n\t}\n\n\tfunction checkBankSecretValueTimeout() external {\n\t\trequire(gameRounds[msg.sender].bankHash != 0, \"Bank hash not set\");\n\t\trequire(gameRounds[msg.sender].bankSecretValue == 0, \"Bank secret is set\");\n\t\trequire(gameRounds[msg.sender].userValue != 0, \"User value not set\");\n\t\trequire(\n\t\t\tblock.timestamp >\n\t\t\t\t(gameRounds[msg.sender].timeWhenSecretUserValueSubmitted +\n\t\t\t\t\tTIMEOUT_FOR_BANK_REVEAL),\n\t\t\t\"Timeout not yet reached\"\n\t\t);\n\n\t\tregisteredFunds[msg.sender] += gameRounds[msg.sender].lockedFunds;\n\t\t_resetContractFor(msg.sender);\n\t}\n\n\tfunction _resetContractFor(address userAddress) private {\n\t\tgameRounds[userAddress] = GameRound(0x0, 0, 0, false, 0, 0);\n\t}\n\n\tfunction _evaluateBet(address userAddress) private {\n\t\tuint256 random = gameRounds[userAddress].bankSecretValue ^\n\t\t\tgameRounds[userAddress].userValue;\n\t\tuint256 number = random % ROULETTE_NUMBER_COUNT;\n\t\tuint256 winningAmount = gameRounds[userAddress].lockedFunds;\n\n\t\tbool isNeitherRedNorBlack = number == 0;\n\t\tbool isRed = isNumberRed[number];\n\t\tbool hasUserBetOnRed = gameRounds[userAddress].hasUserBetOnRed;\n\n\t\taddress winner;\n\n\t\tif (isNeitherRedNorBlack) winner = bankAddress;\n\t\telse if (isRed == hasUserBetOnRed) winner = userAddress;\n\t\telse winner = bankAddress;\n\n\t\temit WinnerDetails(number, winner);\n\n\t\tregisteredFunds[winner] += winningAmount;\n\t}\n}\n",
  "sourcePath": "/home/yashshah/CryptoProject/contracts/RouletteGame.sol",
  "compiler": {
    "name": "solc",
    "version": "0.8.10+commit.fc410830.Emscripten.clang"
  },
  "schemaVersion": "3.4.3",
  "updatedAt": "2021-12-02T06:23:34.925Z",
  "networkType": "ethereum",
  "devdoc": {
    "kind": "dev",
    "methods": {},
    "version": 1
  },
  "userdoc": {
    "kind": "user",
    "methods": {},
    "version": 1
  }
}