{
  "contractName": "Roulette",
  "abi": [
    {
      "anonymous": false,
      "inputs": [
        {
          "indexed": true,
          "internalType": "address",
          "name": "user",
          "type": "address"
        }
      ],
      "name": "NewGameRequest",
      "type": "event"
    },
    {
      "inputs": [],
      "name": "ROULETTE_NUMBER_COUNT",
      "outputs": [
        {
          "internalType": "uint256",
          "name": "",
          "type": "uint256"
        }
      ],
      "stateMutability": "view",
      "type": "function",
      "constant": true
    },
    {
      "inputs": [],
      "name": "TIMEOUT_FOR_BANK_REVEAL",
      "outputs": [
        {
          "internalType": "uint256",
          "name": "",
          "type": "uint256"
        }
      ],
      "stateMutability": "view",
      "type": "function",
      "constant": true
    },
    {
      "inputs": [],
      "name": "bankAddress",
      "outputs": [
        {
          "internalType": "address",
          "name": "",
          "type": "address"
        }
      ],
      "stateMutability": "view",
      "type": "function",
      "constant": true
    },
    {
      "inputs": [
        {
          "internalType": "address",
          "name": "",
          "type": "address"
        }
      ],
      "name": "gameRounds",
      "outputs": [
        {
          "internalType": "bytes32",
          "name": "bankHash",
          "type": "bytes32"
        },
        {
          "internalType": "uint256",
          "name": "bankSecretValue",
          "type": "uint256"
        },
        {
          "internalType": "uint256",
          "name": "userValue",
          "type": "uint256"
        },
        {
          "internalType": "bool",
          "name": "hasUserBetOnRed",
          "type": "bool"
        },
        {
          "internalType": "uint256",
          "name": "timeWhenSecretUserValueSubmitted",
          "type": "uint256"
        },
        {
          "internalType": "uint256",
          "name": "lockedFunds",
          "type": "uint256"
        }
      ],
      "stateMutability": "view",
      "type": "function",
      "constant": true
    },
    {
      "inputs": [
        {
          "internalType": "address",
          "name": "",
          "type": "address"
        }
      ],
      "name": "hasRequestedGame",
      "outputs": [
        {
          "internalType": "bool",
          "name": "",
          "type": "bool"
        }
      ],
      "stateMutability": "view",
      "type": "function",
      "constant": true
    },
    {
      "inputs": [
        {
          "internalType": "address",
          "name": "",
          "type": "address"
        }
      ],
      "name": "registeredFunds",
      "outputs": [
        {
          "internalType": "uint256",
          "name": "",
          "type": "uint256"
        }
      ],
      "stateMutability": "view",
      "type": "function",
      "constant": true
    },
    {
      "inputs": [],
      "name": "increaseFunds",
      "outputs": [],
      "stateMutability": "payable",
      "type": "function",
      "payable": true
    },
    {
      "inputs": [],
      "name": "withdrawMoney",
      "outputs": [],
      "stateMutability": "nonpayable",
      "type": "function"
    },
    {
      "inputs": [],
      "name": "getBalance",
      "outputs": [
        {
          "internalType": "uint256",
          "name": "",
          "type": "uint256"
        }
      ],
      "stateMutability": "view",
      "type": "function",
      "constant": true
    },
    {
      "inputs": [],
      "name": "initializeGame",
      "outputs": [],
      "stateMutability": "nonpayable",
      "type": "function"
    },
    {
      "inputs": [
        {
          "internalType": "bytes32",
          "name": "bankHash",
          "type": "bytes32"
        },
        {
          "internalType": "address",
          "name": "userAddress",
          "type": "address"
        }
      ],
      "name": "setInitialBankHash",
      "outputs": [],
      "stateMutability": "nonpayable",
      "type": "function"
    },
    {
      "inputs": [
        {
          "internalType": "bool",
          "name": "hasUserBetOnRed",
          "type": "bool"
        },
        {
          "internalType": "uint256",
          "name": "userValue",
          "type": "uint256"
        },
        {
          "internalType": "uint256",
          "name": "_betAmount",
          "type": "uint256"
        }
      ],
      "name": "placeBet",
      "outputs": [],
      "stateMutability": "nonpayable",
      "type": "function"
    },
    {
      "inputs": [
        {
          "internalType": "uint256",
          "name": "bankSecretValue",
          "type": "uint256"
        },
        {
          "internalType": "address",
          "name": "userAddress",
          "type": "address"
        }
      ],
      "name": "sendBankSecretValue",
      "outputs": [],
      "stateMutability": "nonpayable",
      "type": "function"
    },
    {
      "inputs": [],
      "name": "checkBankSecretValueTimeout",
      "outputs": [],
      "stateMutability": "nonpayable",
      "type": "function"
    }
  ],
  "bytecode": "0x60c060405262015180608090815250602560a090815250604051806104a001604052806000151515158152602001600115151515815260200160001515151581526020016001151515158152602001600015151515815260200160011515151581526020016000151515158152602001600115151515815260200160001515151581526020016001151515158152602001600015151515815260200160001515151581526020016001151515158152602001600015151515815260200160011515151581526020016000151515158152602001600115151515815260200160001515151581526020016001151515158152602001600115151515815260200160001515151581526020016001151515158152602001600015151515815260200160011515151581526020016000151515158152602001600115151515815260200160001515151581526020016001151515158152602001600015151515815260200160001515151581526020016001151515158152602001600015151515815260200160011515151581526020016000151515158152602001600115151515815260200160001515151581526020016001151515158152506001906025620001c99291906200021e565b50348015620001d757600080fd5b50336000806101000a81548173ffffffffffffffffffffffffffffffffffffffff021916908373ffffffffffffffffffffffffffffffffffffffff160217905550620002dd565b826025601f01602090048101928215620002ab5791602002820160005b838211156200027a57835183826101000a81548160ff02191690831515021790555092602001926001016020816000010492830192600103026200023b565b8015620002a95782816101000a81549060ff02191690556001016020816000010492830192600103026200027a565b505b509050620002ba9190620002be565b5090565b5b80821115620002d9576000816000905550600101620002bf565b5090565b60805160a05161219d620003116000396000818161121301526112c4015260008181610b720152610e53015261219d6000f3fe6080604052600436106100dd5760003560e01c80639dc77d581161007f578063ac44600211610059578063ac4460021461028b578063b3a5cec6146102a2578063ddb57092146102df578063fe688489146102e9576100dd565b80639dc77d5814610232578063a0a1f49b1461025d578063a35fdf9514610274576100dd565b80637822ed49116100bb5780637822ed49146101785780637bf92412146101a35780637f02d905146101cc57806384ba9eaf14610209576100dd565b806312065fe0146100e25780631e00c5a51461010d57806364ea957614610136575b600080fd5b3480156100ee57600080fd5b506100f7610314565b6040516101049190611570565b60405180910390f35b34801561011957600080fd5b50610134600480360381019061012f91906115f4565b610360565b005b34801561014257600080fd5b5061015d600480360381019061015891906116a5565b61075d565b60405161016f969594939291906116fa565b60405180910390f35b34801561018457600080fd5b5061018d6107a6565b60405161019a919061176a565b60405180910390f35b3480156101af57600080fd5b506101ca60048036038101906101c59190611785565b6107ca565b005b3480156101d857600080fd5b506101f360048036038101906101ee91906116a5565b610a26565b60405161020091906117c5565b60405180910390f35b34801561021557600080fd5b50610230600480360381019061022b919061180c565b610a46565b005b34801561023e57600080fd5b50610247610b70565b6040516102549190611570565b60405180910390f35b34801561026957600080fd5b50610272610b94565b005b34801561028057600080fd5b50610289610cbe565b005b34801561029757600080fd5b506102a0610fa3565b005b3480156102ae57600080fd5b506102c960048036038101906102c491906116a5565b61115e565b6040516102d69190611570565b60405180910390f35b6102e7611176565b005b3480156102f557600080fd5b506102fe611211565b60405161030b9190611570565b60405180910390f35b600080600560003373ffffffffffffffffffffffffffffffffffffffff1673ffffffffffffffffffffffffffffffffffffffff1681526020019081526020016000205490508091505090565b6000801b600460003373ffffffffffffffffffffffffffffffffffffffff1673ffffffffffffffffffffffffffffffffffffffff1681526020019081526020016000206000015414156103e8576040517f08c379a00000000000000000000000000000000000000000000000000000000081526004016103df906118a9565b60405180910390fd5b6000821461042b576040517f08c379a000000000000000000000000000000000000000000000000000000000815260040161042290611915565b60405180910390fd5b80600560008060009054906101000a900473ffffffffffffffffffffffffffffffffffffffff1673ffffffffffffffffffffffffffffffffffffffff1673ffffffffffffffffffffffffffffffffffffffff1681526020019081526020016000205410156104ce576040517f08c379a00000000000000000000000000000000000000000000000000000000081526004016104c590611981565b60405180910390fd5b80600560003373ffffffffffffffffffffffffffffffffffffffff1673ffffffffffffffffffffffffffffffffffffffff168152602001908152602001600020541015610550576040517f08c379a0000000000000000000000000000000000000000000000000000000008152600401610547906119ed565b60405180910390fd5b81600460003373ffffffffffffffffffffffffffffffffffffffff1673ffffffffffffffffffffffffffffffffffffffff1681526020019081526020016000206002018190555082600460003373ffffffffffffffffffffffffffffffffffffffff1673ffffffffffffffffffffffffffffffffffffffff16815260200190815260200160002060030160006101000a81548160ff0219169083151502179055506002816105fe9190611a3c565b600460003373ffffffffffffffffffffffffffffffffffffffff1673ffffffffffffffffffffffffffffffffffffffff1681526020019081526020016000206005018190555042600460003373ffffffffffffffffffffffffffffffffffffffff1673ffffffffffffffffffffffffffffffffffffffff1681526020019081526020016000206004018190555080600560003373ffffffffffffffffffffffffffffffffffffffff1673ffffffffffffffffffffffffffffffffffffffff16815260200190815260200160002060008282546106da9190611a96565b9250508190555080600560008060009054906101000a900473ffffffffffffffffffffffffffffffffffffffff1673ffffffffffffffffffffffffffffffffffffffff1673ffffffffffffffffffffffffffffffffffffffff16815260200190815260200160002060008282546107519190611a96565b92505081905550505050565b60046020528060005260406000206000915090508060000154908060010154908060020154908060030160009054906101000a900460ff16908060040154908060050154905086565b60008054906101000a900473ffffffffffffffffffffffffffffffffffffffff1681565b6000600460008373ffffffffffffffffffffffffffffffffffffffff1673ffffffffffffffffffffffffffffffffffffffff168152602001908152602001600020600201541415610850576040517f08c379a000000000000000000000000000000000000000000000000000000000815260040161084790611b16565b60405180910390fd5b6000600460008373ffffffffffffffffffffffffffffffffffffffff1673ffffffffffffffffffffffffffffffffffffffff16815260200190815260200160002060010154146108d5576040517f08c379a00000000000000000000000000000000000000000000000000000000081526004016108cc90611b82565b60405180910390fd5b600460008273ffffffffffffffffffffffffffffffffffffffff1673ffffffffffffffffffffffffffffffffffffffff16815260200190815260200160002060000154826040516020016109299190611bc3565b604051602081830303815290604052805190602001201461097f576040517f08c379a000000000000000000000000000000000000000000000000000000000815260040161097690611c50565b60405180910390fd5b81600460008373ffffffffffffffffffffffffffffffffffffffff1673ffffffffffffffffffffffffffffffffffffffff168152602001908152602001600020600101819055506109cf81611235565b6109d881611489565b8160001b600460008373ffffffffffffffffffffffffffffffffffffffff1673ffffffffffffffffffffffffffffffffffffffff168152602001908152602001600020600001819055505050565b60036020528060005260406000206000915054906101000a900460ff1681565b60008054906101000a900473ffffffffffffffffffffffffffffffffffffffff1673ffffffffffffffffffffffffffffffffffffffff163373ffffffffffffffffffffffffffffffffffffffff1614610a9e57600080fd5b6000801b600460008373ffffffffffffffffffffffffffffffffffffffff1673ffffffffffffffffffffffffffffffffffffffff1681526020019081526020016000206000015414610b25576040517f08c379a0000000000000000000000000000000000000000000000000000000008152600401610b1c90611cbc565b60405180910390fd5b81600460008373ffffffffffffffffffffffffffffffffffffffff1673ffffffffffffffffffffffffffffffffffffffff168152602001908152602001600020600001819055505050565b7f000000000000000000000000000000000000000000000000000000000000000081565b600360003373ffffffffffffffffffffffffffffffffffffffff1673ffffffffffffffffffffffffffffffffffffffff16815260200190815260200160002060009054906101000a900460ff1615610c21576040517f08c379a0000000000000000000000000000000000000000000000000000000008152600401610c1890611d28565b60405180910390fd5b6001600360003373ffffffffffffffffffffffffffffffffffffffff1673ffffffffffffffffffffffffffffffffffffffff16815260200190815260200160002060006101000a81548160ff0219169083151502179055503373ffffffffffffffffffffffffffffffffffffffff167f2ecaf1493a770f6567e43ff54567b68042dd048a3cfb2f07359a89286913d30d60405160405180910390a2565b6000801b600460003373ffffffffffffffffffffffffffffffffffffffff1673ffffffffffffffffffffffffffffffffffffffff168152602001908152602001600020600001541415610d46576040517f08c379a0000000000000000000000000000000000000000000000000000000008152600401610d3d90611d94565b60405180910390fd5b6000600460003373ffffffffffffffffffffffffffffffffffffffff1673ffffffffffffffffffffffffffffffffffffffff1681526020019081526020016000206001015414610dcb576040517f08c379a0000000000000000000000000000000000000000000000000000000008152600401610dc290611e00565b60405180910390fd5b6000600460003373ffffffffffffffffffffffffffffffffffffffff1673ffffffffffffffffffffffffffffffffffffffff168152602001908152602001600020600201541415610e51576040517f08c379a0000000000000000000000000000000000000000000000000000000008152600401610e4890611e6c565b60405180910390fd5b7f0000000000000000000000000000000000000000000000000000000000000000600460003373ffffffffffffffffffffffffffffffffffffffff1673ffffffffffffffffffffffffffffffffffffffff16815260200190815260200160002060040154610ebf9190611e8c565b4211610f00576040517f08c379a0000000000000000000000000000000000000000000000000000000008152600401610ef790611f2e565b60405180910390fd5b600460003373ffffffffffffffffffffffffffffffffffffffff1673ffffffffffffffffffffffffffffffffffffffff16815260200190815260200160002060050154600560003373ffffffffffffffffffffffffffffffffffffffff1673ffffffffffffffffffffffffffffffffffffffff1681526020019081526020016000206000828254610f919190611e8c565b92505081905550610fa133611489565b565b6000600560003373ffffffffffffffffffffffffffffffffffffffff1673ffffffffffffffffffffffffffffffffffffffff1681526020019081526020016000205411611025576040517f08c379a000000000000000000000000000000000000000000000000000000000815260040161101c90611f9a565b60405180910390fd5b6000600560003373ffffffffffffffffffffffffffffffffffffffff1673ffffffffffffffffffffffffffffffffffffffff1681526020019081526020016000205490506000600560003373ffffffffffffffffffffffffffffffffffffffff1673ffffffffffffffffffffffffffffffffffffffff1681526020019081526020016000208190555060003373ffffffffffffffffffffffffffffffffffffffff16826040516110d490611feb565b60006040518083038185875af1925050503d8060008114611111576040519150601f19603f3d011682016040523d82523d6000602084013e611116565b606091505b505090508061115a576040517f08c379a00000000000000000000000000000000000000000000000000000000081526004016111519061204c565b60405180910390fd5b5050565b60056020528060005260406000206000915090505481565b600034116111b9576040517f08c379a00000000000000000000000000000000000000000000000000000000081526004016111b0906120b8565b60405180910390fd5b34600560003373ffffffffffffffffffffffffffffffffffffffff1673ffffffffffffffffffffffffffffffffffffffff16815260200190815260200160002060008282546112089190611e8c565b92505081905550565b7f000000000000000000000000000000000000000000000000000000000000000081565b6000600460008373ffffffffffffffffffffffffffffffffffffffff1673ffffffffffffffffffffffffffffffffffffffff16815260200190815260200160002060020154600460008473ffffffffffffffffffffffffffffffffffffffff1673ffffffffffffffffffffffffffffffffffffffff1681526020019081526020016000206001015418905060007f0000000000000000000000000000000000000000000000000000000000000000826112ee9190612107565b90506000600460008573ffffffffffffffffffffffffffffffffffffffff1673ffffffffffffffffffffffffffffffffffffffff1681526020019081526020016000206005015490506000808314905060006001846025811061135457611353612138565b5b602091828204019190069054906101000a900460ff1690506000600460008873ffffffffffffffffffffffffffffffffffffffff1673ffffffffffffffffffffffffffffffffffffffff16815260200190815260200160002060030160009054906101000a900460ff169050600083156113f05760008054906101000a900473ffffffffffffffffffffffffffffffffffffffff169050611429565b811515831515141561140457879050611428565b60008054906101000a900473ffffffffffffffffffffffffffffffffffffffff1690505b5b84600560008373ffffffffffffffffffffffffffffffffffffffff1673ffffffffffffffffffffffffffffffffffffffff16815260200190815260200160002060008282546114789190611e8c565b925050819055505050505050505050565b6040518060c001604052806000801b81526020016000815260200160008152602001600015158152602001600081526020016000815250600460008373ffffffffffffffffffffffffffffffffffffffff1673ffffffffffffffffffffffffffffffffffffffff16815260200190815260200160002060008201518160000155602082015181600101556040820151816002015560608201518160030160006101000a81548160ff0219169083151502179055506080820151816004015560a0820151816005015590505050565b6000819050919050565b61156a81611557565b82525050565b60006020820190506115856000830184611561565b92915050565b600080fd5b60008115159050919050565b6115a581611590565b81146115b057600080fd5b50565b6000813590506115c28161159c565b92915050565b6115d181611557565b81146115dc57600080fd5b50565b6000813590506115ee816115c8565b92915050565b60008060006060848603121561160d5761160c61158b565b5b600061161b868287016115b3565b935050602061162c868287016115df565b925050604061163d868287016115df565b9150509250925092565b600073ffffffffffffffffffffffffffffffffffffffff82169050919050565b600061167282611647565b9050919050565b61168281611667565b811461168d57600080fd5b50565b60008135905061169f81611679565b92915050565b6000602082840312156116bb576116ba61158b565b5b60006116c984828501611690565b91505092915050565b6000819050919050565b6116e5816116d2565b82525050565b6116f481611590565b82525050565b600060c08201905061170f60008301896116dc565b61171c6020830188611561565b6117296040830187611561565b61173660608301866116eb565b6117436080830185611561565b61175060a0830184611561565b979650505050505050565b61176481611667565b82525050565b600060208201905061177f600083018461175b565b92915050565b6000806040838503121561179c5761179b61158b565b5b60006117aa858286016115df565b92505060206117bb85828601611690565b9150509250929050565b60006020820190506117da60008301846116eb565b92915050565b6117e9816116d2565b81146117f457600080fd5b50565b600081359050611806816117e0565b92915050565b600080604083850312156118235761182261158b565b5b6000611831858286016117f7565b925050602061184285828601611690565b9150509250929050565b600082825260208201905092915050565b7f42616e6b2068617368206e6f7420796574207365740000000000000000000000600082015250565b600061189360158361184c565b915061189e8261185d565b602082019050919050565b600060208201905081810360008301526118c281611886565b9050919050565b7f416c726561647920706c61636564206265740000000000000000000000000000600082015250565b60006118ff60128361184c565b915061190a826118c9565b602082019050919050565b6000602082019050818103600083015261192e816118f2565b9050919050565b7f4e6f7420656e6f7567682062616e6b2066756e64730000000000000000000000600082015250565b600061196b60158361184c565b915061197682611935565b602082019050919050565b6000602082019050818103600083015261199a8161195e565b9050919050565b7f4e6f7420656e6f75676820757365722066756e64730000000000000000000000600082015250565b60006119d760158361184c565b91506119e2826119a1565b602082019050919050565b60006020820190508181036000830152611a06816119ca565b9050919050565b7f4e487b7100000000000000000000000000000000000000000000000000000000600052601160045260246000fd5b6000611a4782611557565b9150611a5283611557565b9250817fffffffffffffffffffffffffffffffffffffffffffffffffffffffffffffffff0483118215151615611a8b57611a8a611a0d565b5b828202905092915050565b6000611aa182611557565b9150611aac83611557565b925082821015611abf57611abe611a0d565b5b828203905092915050565b7f5573657220686173206e6f2076616c7565207365740000000000000000000000600082015250565b6000611b0060158361184c565b9150611b0b82611aca565b602082019050919050565b60006020820190508181036000830152611b2f81611af3565b9050919050565b7f416c72656164792072657665616c656400000000000000000000000000000000600082015250565b6000611b6c60108361184c565b9150611b7782611b36565b602082019050919050565b60006020820190508181036000830152611b9b81611b5f565b9050919050565b6000819050919050565b611bbd611bb882611557565b611ba2565b82525050565b6000611bcf8284611bac565b60208201915081905092915050565b7f42616e6b2072657665616c206e6f74206d61746368696e6720636f6d6d69746d60008201527f656e740000000000000000000000000000000000000000000000000000000000602082015250565b6000611c3a60238361184c565b9150611c4582611bde565b604082019050919050565b60006020820190508181036000830152611c6981611c2d565b9050919050565b7f42616e6b206861736820616c7265616479207365740000000000000000000000600082015250565b6000611ca660158361184c565b9150611cb182611c70565b602082019050919050565b60006020820190508181036000830152611cd581611c99565b9050919050565b7f416c7265616479207265717565737465642067616d6500000000000000000000600082015250565b6000611d1260168361184c565b9150611d1d82611cdc565b602082019050919050565b60006020820190508181036000830152611d4181611d05565b9050919050565b7f42616e6b2068617368206e6f7420736574000000000000000000000000000000600082015250565b6000611d7e60118361184c565b9150611d8982611d48565b602082019050919050565b60006020820190508181036000830152611dad81611d71565b9050919050565b7f42616e6b20736563726574206973207365740000000000000000000000000000600082015250565b6000611dea60128361184c565b9150611df582611db4565b602082019050919050565b60006020820190508181036000830152611e1981611ddd565b9050919050565b7f557365722076616c7565206e6f74207365740000000000000000000000000000600082015250565b6000611e5660128361184c565b9150611e6182611e20565b602082019050919050565b60006020820190508181036000830152611e8581611e49565b9050919050565b6000611e9782611557565b9150611ea283611557565b9250827fffffffffffffffffffffffffffffffffffffffffffffffffffffffffffffffff03821115611ed757611ed6611a0d565b5b828201905092915050565b7f54696d656f7574206e6f74207965742072656163686564000000000000000000600082015250565b6000611f1860178361184c565b9150611f2382611ee2565b602082019050919050565b60006020820190508181036000830152611f4781611f0b565b9050919050565b7f4e6f206d6f6e65792070726573656e7420696e2077616c000000000000000000600082015250565b6000611f8460178361184c565b9150611f8f82611f4e565b602082019050919050565b60006020820190508181036000830152611fb381611f77565b9050919050565b600081905092915050565b50565b6000611fd5600083611fba565b9150611fe082611fc5565b600082019050919050565b6000611ff682611fc8565b9150819050919050565b7f455448207472616e73666572206661696c656400000000000000000000000000600082015250565b600061203660138361184c565b915061204182612000565b602082019050919050565b6000602082019050818103600083015261206581612029565b9050919050565b7f4d7573742073656e642045544800000000000000000000000000000000000000600082015250565b60006120a2600d8361184c565b91506120ad8261206c565b602082019050919050565b600060208201905081810360008301526120d181612095565b9050919050565b7f4e487b7100000000000000000000000000000000000000000000000000000000600052601260045260246000fd5b600061211282611557565b915061211d83611557565b92508261212d5761212c6120d8565b5b828206905092915050565b7f4e487b7100000000000000000000000000000000000000000000000000000000600052603260045260246000fdfea26469706673582212204109c008d4ce9c08939a04b6757dca5270e2fc2c08e73987bb35bd25f4091e4764736f6c634300080a0033",
  "immutableReferences": {
    "29": [
      {
        "length": 32,
        "start": 2930
      },
      {
        "length": 32,
        "start": 3667
      }
    ],
    "32": [
      {
        "length": 32,
        "start": 4627
      },
      {
        "length": 32,
        "start": 4804
      }
    ]
  },
  "source": "// SPDX-License-Identifier: MIT\npragma solidity ^0.8.0;\n\ncontract BankOwned {\n\taddress public bankAddress;\n\n\tconstructor() {\n\t\tbankAddress = msg.sender;\n\t}\n\n\tmodifier onlyOwner() {\n\t\trequire(msg.sender == bankAddress);\n\t\t_;\n\t}\n}\n\ncontract Roulette is BankOwned {\n\tuint256 public immutable TIMEOUT_FOR_BANK_REVEAL = 1 days;\n\tuint256 public immutable ROULETTE_NUMBER_COUNT = 37;\n\n\t// prettier-ignore\n\tbool[37] isNumberRed = [false, true, false, true, false, true, false, true, false, true, false, false, true, false, true, false, true, false, true, true, false, true, false, true, false, true, false, true, false, false, true, false, true, false, true, false, true];\n\n\tstruct GameRound {\n\t\tbytes32 bankHash;\n\t\tuint256 bankSecretValue;\n\t\tuint256 userValue;\n\t\tbool hasUserBetOnRed;\n\t\tuint256 timeWhenSecretUserValueSubmitted;\n\t\tuint256 lockedFunds;\n\t}\n\n\tmapping(address => bool) public hasRequestedGame;\n\tmapping(address => GameRound) public gameRounds;\n\tmapping(address => uint256) public registeredFunds;\n\n\tevent NewGameRequest(address indexed user);\n\n\tfunction increaseFunds() external payable {\n\t\trequire(msg.value > 0, \"Must send ETH\");\n\t\tregisteredFunds[msg.sender] += msg.value;\n\t}\n\n\tfunction withdrawMoney() external {\n\t\trequire(registeredFunds[msg.sender] > 0, \"No money present in wal\");\n\n\t\tuint256 funds = registeredFunds[msg.sender];\n\t\tregisteredFunds[msg.sender] = 0;\n\n\t\t(bool wasSuccessful, ) = msg.sender.call{ value: funds }(\"\");\n\t\trequire(wasSuccessful, \"ETH transfer failed\");\n\t}\n\n  function getBalance() external view returns(uint256){\n    uint256 funds = registeredFunds[msg.sender]; \n    return funds;\n  }\n\n\tfunction initializeGame() external {\n\t\trequire(!hasRequestedGame[msg.sender], \"Already requested game\");\n\n\t\thasRequestedGame[msg.sender] = true;\n\t\temit NewGameRequest(msg.sender);\n\t}\n\n\tfunction setInitialBankHash(bytes32 bankHash, address userAddress) external onlyOwner {\n\t\trequire(gameRounds[userAddress].bankHash == 0x0, \"Bank hash already set\");\n\t\tgameRounds[userAddress].bankHash = bankHash;\n\t}\n\n\tfunction placeBet(\n\t\tbool hasUserBetOnRed,\n\t\tuint256 userValue,\n\t\tuint256 _betAmount\n\t) external {\n\t\trequire(gameRounds[msg.sender].bankHash != 0x0, \"Bank hash not yet set\");\n\t\trequire(userValue == 0, \"Already placed bet\");\n\t\trequire(registeredFunds[bankAddress] >= _betAmount, \"Not enough bank funds\");\n\t\trequire(registeredFunds[msg.sender] >= _betAmount, \"Not enough user funds\");\n\n\t\tgameRounds[msg.sender].userValue = userValue;\n\t\tgameRounds[msg.sender].hasUserBetOnRed = hasUserBetOnRed;\n\t\tgameRounds[msg.sender].lockedFunds = _betAmount * 2;\n\t\tgameRounds[msg.sender].timeWhenSecretUserValueSubmitted = block.timestamp;\n\n\t\tregisteredFunds[msg.sender] -= _betAmount;\n\t\tregisteredFunds[bankAddress] -= _betAmount;\n\t}\n\n\tfunction sendBankSecretValue(uint256 bankSecretValue, address userAddress) external {\n\t\trequire(gameRounds[userAddress].userValue != 0, \"User has no value set\");\n\t\trequire(gameRounds[userAddress].bankSecretValue == 0, \"Already revealed\");\n\t\trequire(\n\t\t\tkeccak256(abi.encodePacked(bankSecretValue)) == gameRounds[userAddress].bankHash,\n\t\t\t\"Bank reveal not matching commitment\"\n\t\t);\n\n\t\tgameRounds[userAddress].bankSecretValue = bankSecretValue;\n\n\t\t_evaluateBet(userAddress);\n\t\t_resetContractFor(userAddress);\n\n\t\tgameRounds[userAddress].bankHash = bytes32(bankSecretValue);\n\t}\n\n\tfunction checkBankSecretValueTimeout() external {\n\t\trequire(gameRounds[msg.sender].bankHash != 0, \"Bank hash not set\");\n\t\trequire(gameRounds[msg.sender].bankSecretValue == 0, \"Bank secret is set\");\n\t\trequire(gameRounds[msg.sender].userValue != 0, \"User value not set\");\n\t\trequire(\n\t\t\tblock.timestamp >\n\t\t\t\t(gameRounds[msg.sender].timeWhenSecretUserValueSubmitted +\n\t\t\t\t\tTIMEOUT_FOR_BANK_REVEAL),\n\t\t\t\"Timeout not yet reached\"\n\t\t);\n\n\t\tregisteredFunds[msg.sender] += gameRounds[msg.sender].lockedFunds;\n\t\t_resetContractFor(msg.sender);\n\t}\n\n\tfunction _resetContractFor(address userAddress) private {\n\t\tgameRounds[userAddress] = GameRound(0x0, 0, 0, false, 0, 0);\n\t}\n\n\tfunction _evaluateBet(address userAddress) private {\n\t\tuint256 random = gameRounds[userAddress].bankSecretValue ^\n\t\t\tgameRounds[userAddress].userValue;\n\t\tuint256 number = random % ROULETTE_NUMBER_COUNT;\n\t\tuint256 winningAmount = gameRounds[userAddress].lockedFunds;\n\n\t\tbool isNeitherRedNorBlack = number == 0;\n\t\tbool isRed = isNumberRed[number];\n\t\tbool hasUserBetOnRed = gameRounds[userAddress].hasUserBetOnRed;\n\n\t\taddress winner;\n\n\t\tif (isNeitherRedNorBlack) winner = bankAddress;\n\t\telse if (isRed == hasUserBetOnRed) winner = userAddress;\n\t\telse winner = bankAddress;\n\n\t\tregisteredFunds[winner] += winningAmount;\n\t}\n}\n",
  "sourcePath": "/home/yashshah/CasinoCrypto/contracts/RouletteGame.sol",
  "compiler": {
    "name": "solc",
    "version": "0.8.10+commit.fc410830.Emscripten.clang"
  },
  "schemaVersion": "3.4.3",
  "updatedAt": "2021-11-24T15:51:32.224Z",
  "networkType": "ethereum",
  "devdoc": {
    "kind": "dev",
    "methods": {},
    "version": 1
  },
  "userdoc": {
    "kind": "user",
    "methods": {},
    "version": 1
  }
}